{
  "address": "0x5FbDB2315678afecb367f032d93F642f64180aa3",
  "abi": [
    {
      "inputs": [
        {
          "internalType": "string",
          "name": "name",
          "type": "string"
        },
        {
          "internalType": "string",
          "name": "version",
          "type": "string"
        }
      ],
      "stateMutability": "nonpayable",
      "type": "constructor"
    },
    {
      "inputs": [],
      "name": "AccessControlBadConfirmation",
      "type": "error"
    },
    {
      "inputs": [
        {
          "internalType": "address",
          "name": "account",
          "type": "address"
        },
        {
          "internalType": "bytes32",
          "name": "neededRole",
          "type": "bytes32"
        }
      ],
      "name": "AccessControlUnauthorizedAccount",
      "type": "error"
    },
    {
      "inputs": [],
      "name": "ECDSAInvalidSignature",
      "type": "error"
    },
    {
      "inputs": [
        {
          "internalType": "uint256",
          "name": "length",
          "type": "uint256"
        }
      ],
      "name": "ECDSAInvalidSignatureLength",
      "type": "error"
    },
    {
      "inputs": [
        {
          "internalType": "bytes32",
          "name": "s",
          "type": "bytes32"
        }
      ],
      "name": "ECDSAInvalidSignatureS",
      "type": "error"
    },
    {
      "inputs": [],
      "name": "InvalidShortString",
      "type": "error"
    },
    {
      "inputs": [
        {
          "internalType": "string",
          "name": "str",
          "type": "string"
        }
      ],
      "name": "StringTooLong",
      "type": "error"
    },
    {
      "anonymous": false,
      "inputs": [],
      "name": "EIP712DomainChanged",
      "type": "event"
    },
    {
      "anonymous": false,
      "inputs": [
        {
          "indexed": true,
          "internalType": "bytes32",
          "name": "reportId",
          "type": "bytes32"
        },
        {
          "indexed": true,
          "internalType": "address",
          "name": "deprecatedBy",
          "type": "address"
        }
      ],
      "name": "ReportDeprecated",
      "type": "event"
    },
    {
      "anonymous": false,
      "inputs": [
        {
          "indexed": true,
          "internalType": "bytes32",
          "name": "reportId",
          "type": "bytes32"
        },
        {
          "indexed": true,
          "internalType": "address",
          "name": "reporter",
          "type": "address"
        },
        {
          "indexed": false,
          "internalType": "enum ThreatIntelRegistry.IOCType",
          "name": "iocType",
          "type": "uint8"
        },
        {
          "indexed": false,
          "internalType": "string",
          "name": "iocValue",
          "type": "string"
        },
        {
          "indexed": false,
          "internalType": "enum ThreatIntelRegistry.Severity",
          "name": "severity",
          "type": "uint8"
        }
      ],
      "name": "ReportSubmitted",
      "type": "event"
    },
    {
      "anonymous": false,
      "inputs": [
        {
          "indexed": true,
          "internalType": "bytes32",
          "name": "role",
          "type": "bytes32"
        },
        {
          "indexed": true,
          "internalType": "bytes32",
          "name": "previousAdminRole",
          "type": "bytes32"
        },
        {
          "indexed": true,
          "internalType": "bytes32",
          "name": "newAdminRole",
          "type": "bytes32"
        }
      ],
      "name": "RoleAdminChanged",
      "type": "event"
    },
    {
      "anonymous": false,
      "inputs": [
        {
          "indexed": true,
          "internalType": "bytes32",
          "name": "role",
          "type": "bytes32"
        },
        {
          "indexed": true,
          "internalType": "address",
          "name": "account",
          "type": "address"
        },
        {
          "indexed": true,
          "internalType": "address",
          "name": "sender",
          "type": "address"
        }
      ],
      "name": "RoleGranted",
      "type": "event"
    },
    {
      "anonymous": false,
      "inputs": [
        {
          "indexed": true,
          "internalType": "bytes32",
          "name": "role",
          "type": "bytes32"
        },
        {
          "indexed": true,
          "internalType": "address",
          "name": "account",
          "type": "address"
        },
        {
          "indexed": true,
          "internalType": "address",
          "name": "sender",
          "type": "address"
        }
      ],
      "name": "RoleRevoked",
      "type": "event"
    },
    {
      "inputs": [],
      "name": "ADMIN_ROLE",
      "outputs": [
        {
          "internalType": "bytes32",
          "name": "",
          "type": "bytes32"
        }
      ],
      "stateMutability": "view",
      "type": "function"
    },
    {
      "inputs": [],
      "name": "DEFAULT_ADMIN_ROLE",
      "outputs": [
        {
          "internalType": "bytes32",
          "name": "",
          "type": "bytes32"
        }
      ],
      "stateMutability": "view",
      "type": "function"
    },
    {
      "inputs": [],
      "name": "RESEARCHER_ROLE",
      "outputs": [
        {
          "internalType": "bytes32",
          "name": "",
          "type": "bytes32"
        }
      ],
      "stateMutability": "view",
      "type": "function"
    },
    {
      "inputs": [
        {
          "internalType": "bytes32",
          "name": "reportId",
          "type": "bytes32"
        }
      ],
      "name": "deprecateReport",
      "outputs": [],
      "stateMutability": "nonpayable",
      "type": "function"
    },
    {
      "inputs": [],
      "name": "eip712Domain",
      "outputs": [
        {
          "internalType": "bytes1",
          "name": "fields",
          "type": "bytes1"
        },
        {
          "internalType": "string",
          "name": "name",
          "type": "string"
        },
        {
          "internalType": "string",
          "name": "version",
          "type": "string"
        },
        {
          "internalType": "uint256",
          "name": "chainId",
          "type": "uint256"
        },
        {
          "internalType": "address",
          "name": "verifyingContract",
          "type": "address"
        },
        {
          "internalType": "bytes32",
          "name": "salt",
          "type": "bytes32"
        },
        {
          "internalType": "uint256[]",
          "name": "extensions",
          "type": "uint256[]"
        }
      ],
      "stateMutability": "view",
      "type": "function"
    },
    {
      "inputs": [
        {
          "internalType": "address",
          "name": "account",
          "type": "address"
        }
      ],
      "name": "getNonce",
      "outputs": [
        {
          "internalType": "uint256",
          "name": "",
          "type": "uint256"
        }
      ],
      "stateMutability": "view",
      "type": "function"
    },
    {
      "inputs": [
        {
          "components": [
            {
              "internalType": "address",
              "name": "reporter",
              "type": "address"
            },
            {
              "internalType": "enum ThreatIntelRegistry.IOCType",
              "name": "iocType",
              "type": "uint8"
            },
            {
              "internalType": "string",
              "name": "iocValue",
              "type": "string"
            },
            {
              "internalType": "enum ThreatIntelRegistry.Severity",
              "name": "severity",
              "type": "uint8"
            },
            {
              "internalType": "string",
              "name": "description",
              "type": "string"
            },
            {
              "internalType": "uint256",
              "name": "timestamp",
              "type": "uint256"
            },
            {
              "internalType": "bool",
              "name": "isDeprecated",
              "type": "bool"
            }
          ],
          "internalType": "struct ThreatIntelRegistry.ThreatReport",
          "name": "report",
          "type": "tuple"
        }
      ],
      "name": "getReportHash",
      "outputs": [
        {
          "internalType": "bytes32",
          "name": "",
          "type": "bytes32"
        }
      ],
      "stateMutability": "view",
      "type": "function"
    },
    {
      "inputs": [
        {
          "internalType": "bytes32",
          "name": "role",
          "type": "bytes32"
        }
      ],
      "name": "getRoleAdmin",
      "outputs": [
        {
          "internalType": "bytes32",
          "name": "",
          "type": "bytes32"
        }
      ],
      "stateMutability": "view",
      "type": "function"
    },
    {
      "inputs": [
        {
          "internalType": "bytes32",
          "name": "role",
          "type": "bytes32"
        },
        {
          "internalType": "address",
          "name": "account",
          "type": "address"
        }
      ],
      "name": "grantRole",
      "outputs": [],
      "stateMutability": "nonpayable",
      "type": "function"
    },
    {
      "inputs": [
        {
          "internalType": "bytes32",
          "name": "role",
          "type": "bytes32"
        },
        {
          "internalType": "address",
          "name": "account",
          "type": "address"
        }
      ],
      "name": "hasRole",
      "outputs": [
        {
          "internalType": "bool",
          "name": "",
          "type": "bool"
        }
      ],
      "stateMutability": "view",
      "type": "function"
    },
    {
      "inputs": [
        {
          "internalType": "bytes32",
          "name": "role",
          "type": "bytes32"
        },
        {
          "internalType": "address",
          "name": "callerConfirmation",
          "type": "address"
        }
      ],
      "name": "renounceRole",
      "outputs": [],
      "stateMutability": "nonpayable",
      "type": "function"
    },
    {
      "inputs": [
        {
          "internalType": "bytes32",
          "name": "",
          "type": "bytes32"
        }
      ],
      "name": "reports",
      "outputs": [
        {
          "internalType": "address",
          "name": "reporter",
          "type": "address"
        },
        {
          "internalType": "enum ThreatIntelRegistry.IOCType",
          "name": "iocType",
          "type": "uint8"
        },
        {
          "internalType": "string",
          "name": "iocValue",
          "type": "string"
        },
        {
          "internalType": "enum ThreatIntelRegistry.Severity",
          "name": "severity",
          "type": "uint8"
        },
        {
          "internalType": "string",
          "name": "description",
          "type": "string"
        },
        {
          "internalType": "uint256",
          "name": "timestamp",
          "type": "uint256"
        },
        {
          "internalType": "bool",
          "name": "isDeprecated",
          "type": "bool"
        }
      ],
      "stateMutability": "view",
      "type": "function"
    },
    {
      "inputs": [
        {
          "internalType": "bytes32",
          "name": "role",
          "type": "bytes32"
        },
        {
          "internalType": "address",
          "name": "account",
          "type": "address"
        }
      ],
      "name": "revokeRole",
      "outputs": [],
      "stateMutability": "nonpayable",
      "type": "function"
    },
    {
      "inputs": [
        {
          "components": [
            {
              "internalType": "address",
              "name": "reporter",
              "type": "address"
            },
            {
              "internalType": "enum ThreatIntelRegistry.IOCType",
              "name": "iocType",
              "type": "uint8"
            },
            {
              "internalType": "string",
              "name": "iocValue",
              "type": "string"
            },
            {
              "internalType": "enum ThreatIntelRegistry.Severity",
              "name": "severity",
              "type": "uint8"
            },
            {
              "internalType": "string",
              "name": "description",
              "type": "string"
            },
            {
              "internalType": "uint256",
              "name": "timestamp",
              "type": "uint256"
            },
            {
              "internalType": "bool",
              "name": "isDeprecated",
              "type": "bool"
            }
          ],
          "internalType": "struct ThreatIntelRegistry.ThreatReport",
          "name": "report",
          "type": "tuple"
        },
        {
          "internalType": "bytes",
          "name": "signature",
          "type": "bytes"
        }
      ],
      "name": "submitReportBySignature",
      "outputs": [],
      "stateMutability": "nonpayable",
      "type": "function"
    },
    {
      "inputs": [
        {
          "internalType": "bytes4",
          "name": "interfaceId",
          "type": "bytes4"
        }
      ],
      "name": "supportsInterface",
      "outputs": [
        {
          "internalType": "bool",
          "name": "",
          "type": "bool"
        }
      ],
      "stateMutability": "view",
      "type": "function"
    }
  ],
  "transactionHash": "0xdfe193ba4d5e2f4a94d84c2bdf63e83fe2b5519339bc9c28b280451ca8c025fc",
  "args": [
    "ThreatIntelRegistry",
    "1"
  ],
  "numDeployments": 1,
  "solcInputHash": "f17e5aa3f6368e7405825d44fe8dd79e",
  "bytecode": "0x6101606040523480156200001257600080fd5b50604051620039d5380380620039d583398181016040528101906200003891906200056f565b8181620000506001836200013b60201b90919060201c565b61012081815250506200006e6002826200013b60201b90919060201c565b6101408181525050818051906020012060e08181525050808051906020012061010081815250504660a08181525050620000ad6200019360201b60201c565b608081815250503073ffffffffffffffffffffffffffffffffffffffff1660c08173ffffffffffffffffffffffffffffffffffffffff16815250505050620000ff6000801b33620001f060201b60201c565b50620001327fa49807205ce4d355092ef5a8a18f56e8913cf4a201fbe287825b095693c2177533620001f060201b60201c565b50505062000b0c565b600060208351101562000161576200015983620002f360201b60201c565b90506200018d565b8262000173836200036060201b60201c565b60000190816200018491906200083f565b5060ff60001b90505b92915050565b60007f8b73c3c69bb8fe3d512ecc4cf759cc79239f7b179b0ffacaa9a75d522b39400f60e051610100514630604051602001620001d595949392919062000997565b60405160208183030381529060405280519060200120905090565b60006200020483836200036a60201b60201c565b620002e857600160008085815260200190815260200160002060000160008473ffffffffffffffffffffffffffffffffffffffff1673ffffffffffffffffffffffffffffffffffffffff16815260200190815260200160002060006101000a81548160ff02191690831515021790555062000284620003d460201b60201c565b73ffffffffffffffffffffffffffffffffffffffff168273ffffffffffffffffffffffffffffffffffffffff16847f2f8788117e7eff1d82e926ec794901d17c78024a50270940304540a733656f0d60405160405180910390a460019050620002ed565b600090505b92915050565b600080829050601f815111156200034357826040517f305a27a90000000000000000000000000000000000000000000000000000000081526004016200033a919062000a46565b60405180910390fd5b805181620003519062000a9c565b60001c1760001b915050919050565b6000819050919050565b600080600084815260200190815260200160002060000160008373ffffffffffffffffffffffffffffffffffffffff1673ffffffffffffffffffffffffffffffffffffffff16815260200190815260200160002060009054906101000a900460ff16905092915050565b600033905090565b6000604051905090565b600080fd5b600080fd5b600080fd5b600080fd5b6000601f19601f8301169050919050565b7f4e487b7100000000000000000000000000000000000000000000000000000000600052604160045260246000fd5b6200044582620003fa565b810181811067ffffffffffffffff821117156200046757620004666200040b565b5b80604052505050565b60006200047c620003dc565b90506200048a82826200043a565b919050565b600067ffffffffffffffff821115620004ad57620004ac6200040b565b5b620004b882620003fa565b9050602081019050919050565b60005b83811015620004e5578082015181840152602081019050620004c8565b60008484015250505050565b60006200050862000502846200048f565b62000470565b905082815260208101848484011115620005275762000526620003f5565b5b62000534848285620004c5565b509392505050565b600082601f830112620005545762000553620003f0565b5b815162000566848260208601620004f1565b91505092915050565b60008060408385031215620005895762000588620003e6565b5b600083015167ffffffffffffffff811115620005aa57620005a9620003eb565b5b620005b8858286016200053c565b925050602083015167ffffffffffffffff811115620005dc57620005db620003eb565b5b620005ea858286016200053c565b9150509250929050565b600081519050919050565b7f4e487b7100000000000000000000000000000000000000000000000000000000600052602260045260246000fd5b600060028204905060018216806200064757607f821691505b6020821081036200065d576200065c620005ff565b5b50919050565b60008190508160005260206000209050919050565b60006020601f8301049050919050565b600082821b905092915050565b600060088302620006c77fffffffffffffffffffffffffffffffffffffffffffffffffffffffffffffffff8262000688565b620006d3868362000688565b95508019841693508086168417925050509392505050565b6000819050919050565b6000819050919050565b6000620007206200071a6200071484620006eb565b620006f5565b620006eb565b9050919050565b6000819050919050565b6200073c83620006ff565b620007546200074b8262000727565b84845462000695565b825550505050565b600090565b6200076b6200075c565b6200077881848462000731565b505050565b5b81811015620007a0576200079460008262000761565b6001810190506200077e565b5050565b601f821115620007ef57620007b98162000663565b620007c48462000678565b81016020851015620007d4578190505b620007ec620007e38562000678565b8301826200077d565b50505b505050565b600082821c905092915050565b60006200081460001984600802620007f4565b1980831691505092915050565b60006200082f838362000801565b9150826002028217905092915050565b6200084a82620005f4565b67ffffffffffffffff8111156200086657620008656200040b565b5b6200087282546200062e565b6200087f828285620007a4565b600060209050601f831160018114620008b75760008415620008a2578287015190505b620008ae858262000821565b8655506200091e565b601f198416620008c78662000663565b60005b82811015620008f157848901518255600182019150602085019450602081019050620008ca565b868310156200091157848901516200090d601f89168262000801565b8355505b6001600288020188555050505b505050505050565b6000819050919050565b6200093b8162000926565b82525050565b6200094c81620006eb565b82525050565b600073ffffffffffffffffffffffffffffffffffffffff82169050919050565b60006200097f8262000952565b9050919050565b620009918162000972565b82525050565b600060a082019050620009ae600083018862000930565b620009bd602083018762000930565b620009cc604083018662000930565b620009db606083018562000941565b620009ea608083018462000986565b9695505050505050565b600082825260208201905092915050565b600062000a1282620005f4565b62000a1e8185620009f4565b935062000a30818560208601620004c5565b62000a3b81620003fa565b840191505092915050565b6000602082019050818103600083015262000a62818462000a05565b905092915050565b600081519050919050565b6000819050602082019050919050565b600062000a93825162000926565b80915050919050565b600062000aa98262000a6a565b8262000ab58462000a75565b905062000ac28162000a85565b9250602082101562000b055762000b007fffffffffffffffffffffffffffffffffffffffffffffffffffffffffffffffff8360200360080262000688565b831692505b5050919050565b60805160a05160c05160e051610100516101205161014051612e6e62000b6760003960006114b00152600061147501526000611a8f01526000611a6e015260006117ed015260006118430152600061186c0152612e6e6000f3fe608060405234801561001057600080fd5b50600436106100f55760003560e01c806350f2aab3116100975780639e150897116100665780639e1508971461029e578063a217fddf146102ba578063b39c4897146102d8578063d547741f1461030e576100f5565b806350f2aab31461020e57806375b238fc1461022c57806384b0196e1461024a57806391d148541461026e576100f5565b80632d0335ab116100d35780632d0335ab146101765780632f2ff15d146101a657806336568abe146101c257806336f9075c146101de576100f5565b806301ffc9a7146100fa5780630a86c6c91461012a578063248a9ca314610146575b600080fd5b610114600480360381019061010f9190611b91565b61032a565b6040516101219190611bd9565b60405180910390f35b610144600480360381019061013f9190611c2a565b6103a4565b005b610160600480360381019061015b9190611c2a565b6105da565b60405161016d9190611c66565b60405180910390f35b610190600480360381019061018b9190611cdf565b6105f9565b60405161019d9190611d25565b60405180910390f35b6101c060048036038101906101bb9190611d40565b610642565b005b6101dc60048036038101906101d79190611d40565b610664565b005b6101f860048036038101906101f39190611da4565b6106df565b6040516102059190611c66565b60405180910390f35b6102166106f1565b6040516102239190611c66565b60405180910390f35b610234610715565b6040516102419190611c66565b60405180910390f35b610252610739565b6040516102659796959493929190611f85565b60405180910390f35b61028860048036038101906102839190611d40565b6107e3565b6040516102959190611bd9565b60405180910390f35b6102b860048036038101906102b3919061206e565b61084d565b005b6102c2610ee3565b6040516102cf9190611c66565b60405180910390f35b6102f260048036038101906102ed9190611c2a565b610eea565b60405161030597969594939291906121a9565b60405180910390f35b61032860048036038101906103239190611d40565b611083565b005b60007f7965db0b000000000000000000000000000000000000000000000000000000007bffffffffffffffffffffffffffffffffffffffffffffffffffffffff1916827bffffffffffffffffffffffffffffffffffffffffffffffffffffffff1916148061039d575061039c826110a5565b5b9050919050565b6000600360008381526020019081526020016000209050600073ffffffffffffffffffffffffffffffffffffffff168160000160009054906101000a900473ffffffffffffffffffffffffffffffffffffffff1673ffffffffffffffffffffffffffffffffffffffff160361044e576040517f08c379a000000000000000000000000000000000000000000000000000000000815260040161044590612298565b60405180910390fd5b8060000160009054906101000a900473ffffffffffffffffffffffffffffffffffffffff1673ffffffffffffffffffffffffffffffffffffffff163373ffffffffffffffffffffffffffffffffffffffff1614806104d257506104d17fa49807205ce4d355092ef5a8a18f56e8913cf4a201fbe287825b095693c21775336107e3565b5b610511576040517f08c379a00000000000000000000000000000000000000000000000000000000081526004016105089061232a565b60405180910390fd5b6003600083815260200190815260200160002060050160009054906101000a900460ff1615610575576040517f08c379a000000000000000000000000000000000000000000000000000000000815260040161056c906123bc565b60405180910390fd5b60018160050160006101000a81548160ff0219169083151502179055503373ffffffffffffffffffffffffffffffffffffffff16827fc361ad3dca0ef57acb39694d1e5beb26126262a81d5635bcd2ecbeafd4f08b2160405160405180910390a35050565b6000806000838152602001908152602001600020600101549050919050565b6000600460008373ffffffffffffffffffffffffffffffffffffffff1673ffffffffffffffffffffffffffffffffffffffff168152602001908152602001600020549050919050565b61064b826105da565b6106548161110f565b61065e8383611123565b50505050565b61066c611214565b73ffffffffffffffffffffffffffffffffffffffff168173ffffffffffffffffffffffffffffffffffffffff16146106d0576040517f6697b23200000000000000000000000000000000000000000000000000000000815260040160405180910390fd5b6106da828261121c565b505050565b60006106ea8261130e565b9050919050565b7f7765bfe615aab9fb9a16bd4c5c9b353f39dae79ca7da86094b0a74ea8a89e59a81565b7fa49807205ce4d355092ef5a8a18f56e8913cf4a201fbe287825b095693c2177581565b60006060806000806000606061074d61146c565b6107556114a7565b46306000801b600067ffffffffffffffff811115610776576107756123dc565b5b6040519080825280602002602001820160405280156107a45781602001602082028036833780820191505090505b507f0f00000000000000000000000000000000000000000000000000000000000000959493929190965096509650965096509650965090919293949596565b600080600084815260200190815260200160002060000160008373ffffffffffffffffffffffffffffffffffffffff1673ffffffffffffffffffffffffffffffffffffffff16815260200190815260200160002060009054906101000a900460ff16905092915050565b7f7765bfe615aab9fb9a16bd4c5c9b353f39dae79ca7da86094b0a74ea8a89e59a6108778161110f565b83600001602081019061088a9190611cdf565b73ffffffffffffffffffffffffffffffffffffffff163373ffffffffffffffffffffffffffffffffffffffff16146108f7576040517f08c379a00000000000000000000000000000000000000000000000000000000081526004016108ee9061247d565b60405180910390fd5b60006109028561130e565b90506000816040516020016109179190612515565b604051602081830303815290604052805190602001209050600061097f8287878080601f016020809104026020016040519081016040528093929190818152602001838380828437600081840152601f19601f820116905080830192505050505050506114e2565b9050600073ffffffffffffffffffffffffffffffffffffffff168173ffffffffffffffffffffffffffffffffffffffff16036109f0576040517f08c379a00000000000000000000000000000000000000000000000000000000081526004016109e790612587565b60405180910390fd5b866000016020810190610a039190611cdf565b73ffffffffffffffffffffffffffffffffffffffff168173ffffffffffffffffffffffffffffffffffffffff1614610a70576040517f08c379a0000000000000000000000000000000000000000000000000000000008152600401610a67906125f3565b60405180910390fd5b6000876020016020810190610a859190612638565b888060400190610a959190612674565b604051602001610aa793929190612741565b6040516020818303038152906040528051906020012090506000600360008381526020019081526020016000206004015414610b7c576003600082815260200190815260200160002060050160009054906101000a900460ff1615610b41576040517f08c379a0000000000000000000000000000000000000000000000000000000008152600401610b38906127dd565b60405180910390fd5b6040517f08c379a0000000000000000000000000000000000000000000000000000000008152600401610b739061286f565b60405180910390fd5b6040518060e00160405280896000016020810190610b9a9190611cdf565b73ffffffffffffffffffffffffffffffffffffffff168152602001896020016020810190610bc89190612638565b6003811115610bda57610bd96120ea565b5b8152602001898060400190610bef9190612674565b8080601f016020809104026020016040519081016040528093929190818152602001838380828437600081840152601f19601f820116905080830192505050505050508152602001896060016020810190610c4a91906128b4565b6003811115610c5c57610c5b6120ea565b5b8152602001898060800190610c719190612674565b8080601f016020809104026020016040519081016040528093929190818152602001838380828437600081840152601f19601f820116905080830192505050505050508152602001428152602001600015158152506003600083815260200190815260200160002060008201518160000160006101000a81548173ffffffffffffffffffffffffffffffffffffffff021916908373ffffffffffffffffffffffffffffffffffffffff16021790555060208201518160000160146101000a81548160ff02191690836003811115610d4b57610d4a6120ea565b5b02179055506040820151816001019081610d659190612aed565b5060608201518160020160006101000a81548160ff02191690836003811115610d9157610d906120ea565b5b02179055506080820151816003019081610dab9190612aed565b5060a0820151816004015560c08201518160050160006101000a81548160ff02191690831515021790555090505060046000896000016020810190610df09190611cdf565b73ffffffffffffffffffffffffffffffffffffffff1673ffffffffffffffffffffffffffffffffffffffff1681526020019081526020016000206000815480929190610e3b90612bee565b9190505550876000016020810190610e539190611cdf565b73ffffffffffffffffffffffffffffffffffffffff16817f7be18f1adf5f2082b4a5005bded27240dca09487b9bbd683a6e6b7a266508d488a6020016020810190610e9e9190612638565b8b8060400190610eae9190612674565b8d6060016020810190610ec191906128b4565b604051610ed19493929190612c63565b60405180910390a35050505050505050565b6000801b81565b60036020528060005260406000206000915090508060000160009054906101000a900473ffffffffffffffffffffffffffffffffffffffff16908060000160149054906101000a900460ff1690806001018054610f4690612910565b80601f0160208091040260200160405190810160405280929190818152602001828054610f7290612910565b8015610fbf5780601f10610f9457610100808354040283529160200191610fbf565b820191906000526020600020905b815481529060010190602001808311610fa257829003601f168201915b5050505050908060020160009054906101000a900460ff1690806003018054610fe790612910565b80601f016020809104026020016040519081016040528092919081815260200182805461101390612910565b80156110605780601f1061103557610100808354040283529160200191611060565b820191906000526020600020905b81548152906001019060200180831161104357829003601f168201915b5050505050908060040154908060050160009054906101000a900460ff16905087565b61108c826105da565b6110958161110f565b61109f838361121c565b50505050565b60007f01ffc9a7000000000000000000000000000000000000000000000000000000007bffffffffffffffffffffffffffffffffffffffffffffffffffffffff1916827bffffffffffffffffffffffffffffffffffffffffffffffffffffffff1916149050919050565b6111208161111b611214565b61150e565b50565b600061112f83836107e3565b61120957600160008085815260200190815260200160002060000160008473ffffffffffffffffffffffffffffffffffffffff1673ffffffffffffffffffffffffffffffffffffffff16815260200190815260200160002060006101000a81548160ff0219169083151502179055506111a6611214565b73ffffffffffffffffffffffffffffffffffffffff168273ffffffffffffffffffffffffffffffffffffffff16847f2f8788117e7eff1d82e926ec794901d17c78024a50270940304540a733656f0d60405160405180910390a46001905061120e565b600090505b92915050565b600033905090565b600061122883836107e3565b1561130357600080600085815260200190815260200160002060000160008473ffffffffffffffffffffffffffffffffffffffff1673ffffffffffffffffffffffffffffffffffffffff16815260200190815260200160002060006101000a81548160ff0219169083151502179055506112a0611214565b73ffffffffffffffffffffffffffffffffffffffff168273ffffffffffffffffffffffffffffffffffffffff16847ff6391f5c32d9c69d2a47ea670b442974b53935d1edc7fd64eb21e047a839171b60405160405180910390a460019050611308565b600090505b92915050565b6000807f4d74e28778891ad485597e34ea3b4dd6166ed0b90f98d8531023aa9d6f98521b8360000160208101906113459190611cdf565b8460200160208101906113589190612638565b600381111561136a576113696120ea565b5b85806040019061137a9190612674565b604051611388929190612cd3565b60405180910390208660600160208101906113a391906128b4565b60038111156113b5576113b46120ea565b5b8780608001906113c59190612674565b6040516113d3929190612cd3565b6040518091039020600460008a60000160208101906113f29190611cdf565b73ffffffffffffffffffffffffffffffffffffffff1673ffffffffffffffffffffffffffffffffffffffff168152602001908152602001600020546040516020016114439796959493929190612d08565b6040516020818303038152906040528051906020012090506114648161155f565b915050919050565b60606114a260017f000000000000000000000000000000000000000000000000000000000000000061157990919063ffffffff16565b905090565b60606114dd60027f000000000000000000000000000000000000000000000000000000000000000061157990919063ffffffff16565b905090565b6000806000806114f28686611629565b9250925092506115028282611685565b82935050505092915050565b61151882826107e3565b61155b5780826040517fe2517d3f000000000000000000000000000000000000000000000000000000008152600401611552929190612d77565b60405180910390fd5b5050565b600061157261156c6117e9565b836118a0565b9050919050565b606060ff60001b83146115965761158f836118e1565b9050611623565b8180546115a290612910565b80601f01602080910402602001604051908101604052809291908181526020018280546115ce90612910565b801561161b5780601f106115f05761010080835404028352916020019161161b565b820191906000526020600020905b8154815290600101906020018083116115fe57829003601f168201915b505050505090505b92915050565b6000806000604184510361166e5760008060006020870151925060408701519150606087015160001a905061166088828585611955565b95509550955050505061167e565b60006002855160001b9250925092505b9250925092565b60006003811115611699576116986120ea565b5b8260038111156116ac576116ab6120ea565b5b03156117e557600160038111156116c6576116c56120ea565b5b8260038111156116d9576116d86120ea565b5b03611710576040517ff645eedf00000000000000000000000000000000000000000000000000000000815260040160405180910390fd5b60026003811115611724576117236120ea565b5b826003811115611737576117366120ea565b5b0361177c578060001c6040517ffce698f70000000000000000000000000000000000000000000000000000000081526004016117739190611d25565b60405180910390fd5b60038081111561178f5761178e6120ea565b5b8260038111156117a2576117a16120ea565b5b036117e457806040517fd78bce0c0000000000000000000000000000000000000000000000000000000081526004016117db9190611c66565b60405180910390fd5b5b5050565b60007f000000000000000000000000000000000000000000000000000000000000000073ffffffffffffffffffffffffffffffffffffffff163073ffffffffffffffffffffffffffffffffffffffff1614801561186557507f000000000000000000000000000000000000000000000000000000000000000046145b15611892577f0000000000000000000000000000000000000000000000000000000000000000905061189d565b61189a611a49565b90505b90565b60006040517f190100000000000000000000000000000000000000000000000000000000000081528360028201528260228201526042812091505092915050565b606060006118ee83611adf565b90506000602067ffffffffffffffff81111561190d5761190c6123dc565b5b6040519080825280601f01601f19166020018201604052801561193f5781602001600182028036833780820191505090505b5090508181528360208201528092505050919050565b60008060007f7fffffffffffffffffffffffffffffff5d576e7357a4501ddfe92f46681b20a08460001c1115611995576000600385925092509250611a3f565b6000600188888888604051600081526020016040526040516119ba9493929190612da0565b6020604051602081039080840390855afa1580156119dc573d6000803e3d6000fd5b505050602060405103519050600073ffffffffffffffffffffffffffffffffffffffff168173ffffffffffffffffffffffffffffffffffffffff1603611a3057600060016000801b93509350935050611a3f565b8060008060001b935093509350505b9450945094915050565b60007f8b73c3c69bb8fe3d512ecc4cf759cc79239f7b179b0ffacaa9a75d522b39400f7f00000000000000000000000000000000000000000000000000000000000000007f00000000000000000000000000000000000000000000000000000000000000004630604051602001611ac4959493929190612de5565b60405160208183030381529060405280519060200120905090565b60008060ff8360001c169050601f811115611b26576040517fb3512b0c00000000000000000000000000000000000000000000000000000000815260040160405180910390fd5b80915050919050565b600080fd5b600080fd5b60007fffffffff0000000000000000000000000000000000000000000000000000000082169050919050565b611b6e81611b39565b8114611b7957600080fd5b50565b600081359050611b8b81611b65565b92915050565b600060208284031215611ba757611ba6611b2f565b5b6000611bb584828501611b7c565b91505092915050565b60008115159050919050565b611bd381611bbe565b82525050565b6000602082019050611bee6000830184611bca565b92915050565b6000819050919050565b611c0781611bf4565b8114611c1257600080fd5b50565b600081359050611c2481611bfe565b92915050565b600060208284031215611c4057611c3f611b2f565b5b6000611c4e84828501611c15565b91505092915050565b611c6081611bf4565b82525050565b6000602082019050611c7b6000830184611c57565b92915050565b600073ffffffffffffffffffffffffffffffffffffffff82169050919050565b6000611cac82611c81565b9050919050565b611cbc81611ca1565b8114611cc757600080fd5b50565b600081359050611cd981611cb3565b92915050565b600060208284031215611cf557611cf4611b2f565b5b6000611d0384828501611cca565b91505092915050565b6000819050919050565b611d1f81611d0c565b82525050565b6000602082019050611d3a6000830184611d16565b92915050565b60008060408385031215611d5757611d56611b2f565b5b6000611d6585828601611c15565b9250506020611d7685828601611cca565b9150509250929050565b600080fd5b600060e08284031215611d9b57611d9a611d80565b5b81905092915050565b600060208284031215611dba57611db9611b2f565b5b600082013567ffffffffffffffff811115611dd857611dd7611b34565b5b611de484828501611d85565b91505092915050565b60007fff0000000000000000000000000000000000000000000000000000000000000082169050919050565b611e2281611ded565b82525050565b600081519050919050565b600082825260208201905092915050565b60005b83811015611e62578082015181840152602081019050611e47565b60008484015250505050565b6000601f19601f8301169050919050565b6000611e8a82611e28565b611e948185611e33565b9350611ea4818560208601611e44565b611ead81611e6e565b840191505092915050565b611ec181611ca1565b82525050565b600081519050919050565b600082825260208201905092915050565b6000819050602082019050919050565b611efc81611d0c565b82525050565b6000611f0e8383611ef3565b60208301905092915050565b6000602082019050919050565b6000611f3282611ec7565b611f3c8185611ed2565b9350611f4783611ee3565b8060005b83811015611f78578151611f5f8882611f02565b9750611f6a83611f1a565b925050600181019050611f4b565b5085935050505092915050565b600060e082019050611f9a600083018a611e19565b8181036020830152611fac8189611e7f565b90508181036040830152611fc08188611e7f565b9050611fcf6060830187611d16565b611fdc6080830186611eb8565b611fe960a0830185611c57565b81810360c0830152611ffb8184611f27565b905098975050505050505050565b600080fd5b600080fd5b600080fd5b60008083601f84011261202e5761202d612009565b5b8235905067ffffffffffffffff81111561204b5761204a61200e565b5b60208301915083600182028301111561206757612066612013565b5b9250929050565b60008060006040848603121561208757612086611b2f565b5b600084013567ffffffffffffffff8111156120a5576120a4611b34565b5b6120b186828701611d85565b935050602084013567ffffffffffffffff8111156120d2576120d1611b34565b5b6120de86828701612018565b92509250509250925092565b7f4e487b7100000000000000000000000000000000000000000000000000000000600052602160045260246000fd5b6004811061212a576121296120ea565b5b50565b600081905061213b82612119565b919050565b600061214b8261212d565b9050919050565b61215b81612140565b82525050565b60048110612172576121716120ea565b5b50565b600081905061218382612161565b919050565b600061219382612175565b9050919050565b6121a381612188565b82525050565b600060e0820190506121be600083018a611eb8565b6121cb6020830189612152565b81810360408301526121dd8188611e7f565b90506121ec606083018761219a565b81810360808301526121fe8186611e7f565b905061220d60a0830185611d16565b61221a60c0830184611bca565b98975050505050505050565b7f546872656174496e74656c3a205265706f727420646f6573206e6f742065786960008201527f73742e0000000000000000000000000000000000000000000000000000000000602082015250565b6000612282602383611e33565b915061228d82612226565b604082019050919050565b600060208201905081810360008301526122b181612275565b9050919050565b7f546872656174496e74656c3a204e6f7420617574686f72697a656420746f206460008201527f65707265636174652e0000000000000000000000000000000000000000000000602082015250565b6000612314602983611e33565b915061231f826122b8565b604082019050919050565b6000602082019050818103600083015261234381612307565b9050919050565b7f546872656174496e74656c3a205265706f727420697320616c7265616479206460008201527f6570726563617465642e00000000000000000000000000000000000000000000602082015250565b60006123a6602a83611e33565b91506123b18261234a565b604082019050919050565b600060208201905081810360008301526123d581612399565b9050919050565b7f4e487b7100000000000000000000000000000000000000000000000000000000600052604160045260246000fd5b7f546872656174496e74656c3a2043616c6c6572206d757374206265207468652060008201527f7265706f727465722e0000000000000000000000000000000000000000000000602082015250565b6000612467602983611e33565b91506124728261240b565b604082019050919050565b600060208201905081810360008301526124968161245a565b9050919050565b600081905092915050565b7f19457468657265756d205369676e6564204d6573736167653a0a333200000000600082015250565b60006124de601c8361249d565b91506124e9826124a8565b601c82019050919050565b6000819050919050565b61250f61250a82611bf4565b6124f4565b82525050565b6000612520826124d1565b915061252c82846124fe565b60208201915081905092915050565b7f546872656174496e74656c3a20496e76616c6964207369676e61747572652e00600082015250565b6000612571601f83611e33565b915061257c8261253b565b602082019050919050565b600060208201905081810360008301526125a081612564565b9050919050565b7f546872656174496e74656c3a205369676e6572206d69736d617463682e000000600082015250565b60006125dd601d83611e33565b91506125e8826125a7565b602082019050919050565b6000602082019050818103600083015261260c816125d0565b9050919050565b6004811061262057600080fd5b50565b60008135905061263281612613565b92915050565b60006020828403121561264e5761264d611b2f565b5b600061265c84828501612623565b91505092915050565b600080fd5b600080fd5b600080fd5b6000808335600160200384360303811261269157612690612665565b5b80840192508235915067ffffffffffffffff8211156126b3576126b261266a565b5b6020830192506001820236038313156126cf576126ce61266f565b5b509250929050565b60008160f81b9050919050565b60006126ef826126d7565b9050919050565b61270761270282612140565b6126e4565b82525050565b82818337600083830152505050565b6000612728838561249d565b935061273583858461270d565b82840190509392505050565b600061274d82866126f6565b60018201915061275e82848661271c565b9150819050949350505050565b7f546872656174496e74656c3a2043616e6e6f742075706461746520612064657060008201527f72656361746564207265706f72742e0000000000000000000000000000000000602082015250565b60006127c7602f83611e33565b91506127d28261276b565b604082019050919050565b600060208201905081810360008301526127f6816127ba565b9050919050565b7f546872656174496e74656c3a205265706f727420616c7265616479206578697360008201527f74732e0000000000000000000000000000000000000000000000000000000000602082015250565b6000612859602383611e33565b9150612864826127fd565b604082019050919050565b600060208201905081810360008301526128888161284c565b9050919050565b6004811061289c57600080fd5b50565b6000813590506128ae8161288f565b92915050565b6000602082840312156128ca576128c9611b2f565b5b60006128d88482850161289f565b91505092915050565b7f4e487b7100000000000000000000000000000000000000000000000000000000600052602260045260246000fd5b6000600282049050600182168061292857607f821691505b60208210810361293b5761293a6128e1565b5b50919050565b60008190508160005260206000209050919050565b60006020601f8301049050919050565b600082821b905092915050565b6000600883026129a37fffffffffffffffffffffffffffffffffffffffffffffffffffffffffffffffff82612966565b6129ad8683612966565b95508019841693508086168417925050509392505050565b6000819050919050565b60006129ea6129e56129e084611d0c565b6129c5565b611d0c565b9050919050565b6000819050919050565b612a04836129cf565b612a18612a10826129f1565b848454612973565b825550505050565b600090565b612a2d612a20565b612a388184846129fb565b505050565b5b81811015612a5c57612a51600082612a25565b600181019050612a3e565b5050565b601f821115612aa157612a7281612941565b612a7b84612956565b81016020851015612a8a578190505b612a9e612a9685612956565b830182612a3d565b50505b505050565b600082821c905092915050565b6000612ac460001984600802612aa6565b1980831691505092915050565b6000612add8383612ab3565b9150826002028217905092915050565b612af682611e28565b67ffffffffffffffff811115612b0f57612b0e6123dc565b5b612b198254612910565b612b24828285612a60565b600060209050601f831160018114612b575760008415612b45578287015190505b612b4f8582612ad1565b865550612bb7565b601f198416612b6586612941565b60005b82811015612b8d57848901518255600182019150602085019450602081019050612b68565b86831015612baa5784890151612ba6601f891682612ab3565b8355505b6001600288020188555050505b505050505050565b7f4e487b7100000000000000000000000000000000000000000000000000000000600052601160045260246000fd5b6000612bf982611d0c565b91507fffffffffffffffffffffffffffffffffffffffffffffffffffffffffffffffff8203612c2b57612c2a612bbf565b5b600182019050919050565b6000612c428385611e33565b9350612c4f83858461270d565b612c5883611e6e565b840190509392505050565b6000606082019050612c786000830187612152565b8181036020830152612c8b818587612c36565b9050612c9a604083018461219a565b95945050505050565b600081905092915050565b6000612cba8385612ca3565b9350612cc783858461270d565b82840190509392505050565b6000612ce0828486612cae565b91508190509392505050565b600060ff82169050919050565b612d0281612cec565b82525050565b600060e082019050612d1d600083018a611c57565b612d2a6020830189611eb8565b612d376040830188612cf9565b612d446060830187611c57565b612d516080830186612cf9565b612d5e60a0830185611c57565b612d6b60c0830184611d16565b98975050505050505050565b6000604082019050612d8c6000830185611eb8565b612d996020830184611c57565b9392505050565b6000608082019050612db56000830187611c57565b612dc26020830186612cf9565b612dcf6040830185611c57565b612ddc6060830184611c57565b95945050505050565b600060a082019050612dfa6000830188611c57565b612e076020830187611c57565b612e146040830186611c57565b612e216060830185611d16565b612e2e6080830184611eb8565b969550505050505056fea2646970667358221220bfd02e6487a4aa7f5379c177414ed232ecbca4569c5c502471ce2e0eda8b7fef64736f6c63430008140033",
  "devdoc": {
    "author": "Principal Blockchain Security Architect",
    "errors": {
      "AccessControlBadConfirmation()": [
        {
          "details": "The caller of a function is not the expected one. NOTE: Don't confuse with {AccessControlUnauthorizedAccount}."
        }
      ],
      "AccessControlUnauthorizedAccount(address,bytes32)": [
        {
          "details": "The `account` is missing a role."
        }
      ],
      "ECDSAInvalidSignature()": [
        {
          "details": "The signature derives the `address(0)`."
        }
      ],
      "ECDSAInvalidSignatureLength(uint256)": [
        {
          "details": "The signature has an invalid length."
        }
      ],
      "ECDSAInvalidSignatureS(bytes32)": [
        {
          "details": "The signature has an S value that is in the upper half order."
        }
      ]
    },
    "events": {
      "EIP712DomainChanged()": {
        "details": "MAY be emitted to signal that the domain could have changed."
      },
      "RoleAdminChanged(bytes32,bytes32,bytes32)": {
        "details": "Emitted when `newAdminRole` is set as ``role``'s admin role, replacing `previousAdminRole` `DEFAULT_ADMIN_ROLE` is the starting admin for all roles, despite {RoleAdminChanged} not being emitted to signal this."
      },
      "RoleGranted(bytes32,address,address)": {
        "details": "Emitted when `account` is granted `role`. `sender` is the account that originated the contract call. This account bears the admin role (for the granted role). Expected in cases where the role was granted using the internal {AccessControl-_grantRole}."
      },
      "RoleRevoked(bytes32,address,address)": {
        "details": "Emitted when `account` is revoked `role`. `sender` is the account that originated the contract call:   - if using `revokeRole`, it is the admin role bearer   - if using `renounceRole`, it is the role bearer (i.e. `account`)"
      }
    },
    "kind": "dev",
    "methods": {
      "constructor": {
        "details": "Sets up the contract, EIP-712 domain, and initial roles. The deployer of the contract is granted the ADMIN_ROLE."
      },
      "deprecateReport(bytes32)": {
        "details": "Can only be called by the original reporter or an admin.      This preserves the history while indicating the intelligence may be outdated.",
        "params": {
          "reportId": "The unique ID of the report to deprecate."
        }
      },
      "eip712Domain()": {
        "details": "returns the fields and values that describe the domain separator used by this contract for EIP-712 signature."
      },
      "getNonce(address)": {
        "params": {
          "account": "The address of the researcher."
        },
        "returns": {
          "_0": "The current nonce."
        }
      },
      "getReportHash((address,uint8,string,uint8,string,uint256,bool))": {
        "details": "This helps off-chain clients construct the correct hash to sign.",
        "params": {
          "report": "The ThreatReport data to hash."
        },
        "returns": {
          "_0": "The EIP-712 digest."
        }
      },
      "getRoleAdmin(bytes32)": {
        "details": "Returns the admin role that controls `role`. See {grantRole} and {revokeRole}. To change a role's admin, use {_setRoleAdmin}."
      },
      "grantRole(bytes32,address)": {
        "details": "Grants `role` to `account`. If `account` had not been already granted `role`, emits a {RoleGranted} event. Requirements: - the caller must have ``role``'s admin role. May emit a {RoleGranted} event."
      },
      "hasRole(bytes32,address)": {
        "details": "Returns `true` if `account` has been granted `role`."
      },
      "renounceRole(bytes32,address)": {
        "details": "Revokes `role` from the calling account. Roles are often managed via {grantRole} and {revokeRole}: this function's purpose is to provide a mechanism for accounts to lose their privileges if they are compromised (such as when a trusted device is misplaced). If the calling account had been revoked `role`, emits a {RoleRevoked} event. Requirements: - the caller must be `callerConfirmation`. May emit a {RoleRevoked} event."
      },
      "revokeRole(bytes32,address)": {
        "details": "Revokes `role` from `account`. If `account` had been granted `role`, emits a {RoleRevoked} event. Requirements: - the caller must have ``role``'s admin role. May emit a {RoleRevoked} event."
      },
      "submitReportBySignature((address,uint8,string,uint8,string,uint256,bool),bytes)": {
        "details": "This function allows a researcher to submit a report without sending a transaction themselves.      A relayer can submit the signed data on their behalf.",
        "params": {
          "report": "The ThreatReport data that was signed.",
          "signature": "The EIP-712 signature from the researcher."
        }
      },
      "supportsInterface(bytes4)": {
        "details": "Returns true if this contract implements the interface defined by `interfaceId`. See the corresponding https://eips.ethereum.org/EIPS/eip-165#how-interfaces-are-identified[ERC section] to learn more about how these ids are created. This function call must use less than 30 000 gas."
      }
    },
    "title": "ThreatIntelRegistry",
    "version": 1
  },
  "userdoc": {
    "kind": "user",
    "methods": {
      "deprecateReport(bytes32)": {
        "notice": "Marks a report as deprecated."
      },
      "getNonce(address)": {
        "notice": "Retrieves the current nonce for a given researcher."
      },
      "getReportHash((address,uint8,string,uint8,string,uint256,bool))": {
        "notice": "A public view function to compute the EIP-712 hash for a given report structure."
      },
      "submitReportBySignature((address,uint8,string,uint8,string,uint256,bool),bytes)": {
        "notice": "Submits a threat report using an EIP-712 signature."
      }
    },
    "notice": "A decentralized registry for cybersecurity threat intelligence. Vetted researchers can submit Indicators of Compromise (IOCs) via off-chain signatures, creating an immutable and censorship-resistant ledger.",
    "version": 1
  },
  "storageLayout": {
    "storage": [
      {
        "astId": 27,
        "contract": "contracts/ThreatIntelRegistry.sol:ThreatIntelRegistry",
        "label": "_roles",
        "offset": 0,
        "slot": "0",
        "type": "t_mapping(t_bytes32,t_struct(RoleData)22_storage)"
      },
      {
        "astId": 2614,
        "contract": "contracts/ThreatIntelRegistry.sol:ThreatIntelRegistry",
        "label": "_nameFallback",
        "offset": 0,
        "slot": "1",
        "type": "t_string_storage"
      },
      {
        "astId": 2616,
        "contract": "contracts/ThreatIntelRegistry.sol:ThreatIntelRegistry",
        "label": "_versionFallback",
        "offset": 0,
        "slot": "2",
        "type": "t_string_storage"
      },
      {
        "astId": 6508,
        "contract": "contracts/ThreatIntelRegistry.sol:ThreatIntelRegistry",
        "label": "reports",
        "offset": 0,
        "slot": "3",
        "type": "t_mapping(t_bytes32,t_struct(ThreatReport)6503_storage)"
      },
      {
        "astId": 6512,
        "contract": "contracts/ThreatIntelRegistry.sol:ThreatIntelRegistry",
        "label": "_nonces",
        "offset": 0,
        "slot": "4",
        "type": "t_mapping(t_address,t_uint256)"
      }
    ],
    "types": {
      "t_address": {
        "encoding": "inplace",
        "label": "address",
        "numberOfBytes": "20"
      },
      "t_bool": {
        "encoding": "inplace",
        "label": "bool",
        "numberOfBytes": "1"
      },
      "t_bytes32": {
        "encoding": "inplace",
        "label": "bytes32",
        "numberOfBytes": "32"
      },
      "t_enum(IOCType)6481": {
        "encoding": "inplace",
        "label": "enum ThreatIntelRegistry.IOCType",
        "numberOfBytes": "1"
      },
      "t_enum(Severity)6486": {
        "encoding": "inplace",
        "label": "enum ThreatIntelRegistry.Severity",
        "numberOfBytes": "1"
      },
      "t_mapping(t_address,t_bool)": {
        "encoding": "mapping",
        "key": "t_address",
        "label": "mapping(address => bool)",
        "numberOfBytes": "32",
        "value": "t_bool"
      },
      "t_mapping(t_address,t_uint256)": {
        "encoding": "mapping",
        "key": "t_address",
        "label": "mapping(address => uint256)",
        "numberOfBytes": "32",
        "value": "t_uint256"
      },
      "t_mapping(t_bytes32,t_struct(RoleData)22_storage)": {
        "encoding": "mapping",
        "key": "t_bytes32",
        "label": "mapping(bytes32 => struct AccessControl.RoleData)",
        "numberOfBytes": "32",
        "value": "t_struct(RoleData)22_storage"
      },
      "t_mapping(t_bytes32,t_struct(ThreatReport)6503_storage)": {
        "encoding": "mapping",
        "key": "t_bytes32",
        "label": "mapping(bytes32 => struct ThreatIntelRegistry.ThreatReport)",
        "numberOfBytes": "32",
        "value": "t_struct(ThreatReport)6503_storage"
      },
      "t_string_storage": {
        "encoding": "bytes",
        "label": "string",
        "numberOfBytes": "32"
      },
      "t_struct(RoleData)22_storage": {
        "encoding": "inplace",
        "label": "struct AccessControl.RoleData",
        "members": [
          {
            "astId": 19,
            "contract": "contracts/ThreatIntelRegistry.sol:ThreatIntelRegistry",
            "label": "hasRole",
            "offset": 0,
            "slot": "0",
            "type": "t_mapping(t_address,t_bool)"
          },
          {
            "astId": 21,
            "contract": "contracts/ThreatIntelRegistry.sol:ThreatIntelRegistry",
            "label": "adminRole",
            "offset": 0,
            "slot": "1",
            "type": "t_bytes32"
          }
        ],
        "numberOfBytes": "64"
      },
      "t_struct(ThreatReport)6503_storage": {
        "encoding": "inplace",
        "label": "struct ThreatIntelRegistry.ThreatReport",
        "members": [
          {
            "astId": 6488,
            "contract": "contracts/ThreatIntelRegistry.sol:ThreatIntelRegistry",
            "label": "reporter",
            "offset": 0,
            "slot": "0",
            "type": "t_address"
          },
          {
            "astId": 6491,
            "contract": "contracts/ThreatIntelRegistry.sol:ThreatIntelRegistry",
            "label": "iocType",
            "offset": 20,
            "slot": "0",
            "type": "t_enum(IOCType)6481"
          },
          {
            "astId": 6493,
            "contract": "contracts/ThreatIntelRegistry.sol:ThreatIntelRegistry",
            "label": "iocValue",
            "offset": 0,
            "slot": "1",
            "type": "t_string_storage"
          },
          {
            "astId": 6496,
            "contract": "contracts/ThreatIntelRegistry.sol:ThreatIntelRegistry",
            "label": "severity",
            "offset": 0,
            "slot": "2",
            "type": "t_enum(Severity)6486"
          },
          {
            "astId": 6498,
            "contract": "contracts/ThreatIntelRegistry.sol:ThreatIntelRegistry",
            "label": "description",
            "offset": 0,
            "slot": "3",
            "type": "t_string_storage"
          },
          {
            "astId": 6500,
            "contract": "contracts/ThreatIntelRegistry.sol:ThreatIntelRegistry",
            "label": "timestamp",
            "offset": 0,
            "slot": "4",
            "type": "t_uint256"
          },
          {
            "astId": 6502,
            "contract": "contracts/ThreatIntelRegistry.sol:ThreatIntelRegistry",
            "label": "isDeprecated",
            "offset": 0,
            "slot": "5",
            "type": "t_bool"
          }
        ],
        "numberOfBytes": "192"
      },
      "t_uint256": {
        "encoding": "inplace",
        "label": "uint256",
        "numberOfBytes": "32"
      }
    }
  }
}